:1000000029C000002FC000002DC000002BC0000040
:1000100029C0000027C0000025C0000023C0000048
:1000200021C000001FC000001DC000001BC0000058
:1000300019C0000017C0000015C0000013C0000068
:1000400011C000000FC000000DC000000BC0000078
:1000500009C0000011241FBECFE5D4E0DEBFCDBF34
:1000600002D017C0CDCF87B38A6587BB02D003D03B
:10007000FECF8A9A089582B394E0892782BB2FE34A
:100080008DE093E0215080409040E1F700C00000F7
:0A0090000895F89400C0F894FFCF23
:00000001FF
